:1000000045C0000053C0000051C000004FC00000B8
:100010004DC000004BC0000049C0000047C00000B8
:1000200045C00000A8C0000041C000003FC0000063
:100030003DC000003BC0000039C0000037C00000D8
:1000400035C0000033C0000031C000002FC00000E8
:100050002DC000002BC0000029C0000027C00000F8
:1000600025C0000023C0000021C000001FC0000008
:100070001DC000001BC0000019C0000017C0000018
:1000800015C0000013C0000011C0000011241FBEE5
:10009000CFEFD0E1DEBFCDBF21E0A0E0B1E001C0F5
:1000A0001D92A330B207E1F7A6D0AEC0A9CF982F1A
:1000B000907F95BBAB9AEFE4F3EC3197F1F700C07A
:1000C000000094E095BBF0E18F9FC001112485BB37
:1000D000AB9A8FE493EC0197F1F700C0000015BADA
:1000E00008958FEF84BB8FE493EC0197F1F700C084
:1000F000000082E0DCDF8FE493EC0197F1F700C0B1
:10010000000088E2D4DF8FE493EC0197F1F700C0A0
:1001100000008CE0CCDF8FE493EC0197F1F700C096
:10012000000086E0C4DF8FE493EC0197F1F700C094
:10013000000080E8BCDF8FE493EC0197F1F700C08A
:10014000000081E0B4DF8FE493EC0197F1F700C089
:1001500000000895181619066CF420E030E0EFEC6A
:10016000F7E03197F1F700C000002F5F3F4F821793
:100170009307A9F708951F920F920FB60F921124BB
:100180008F939F938091010190910201019690932A
:100190000201809301018931910579F48091000178
:1001A00081111AC081E08093000182B3805882BB24
:1001B00010920201109201010FC00F9769F4809113
:1001C0000001813049F41092000182B3805882BB53
:1001D00010920201109201019F918F910F900FBE1A
:1001E0000F901F9018958DE783BD87B7806887BFF4
:1001F0008BE085BD089575DFF6DF78948FEF81BBC6
:0C02000084E690E0A7DFFCCFF894FFCF6D
:00000001FF
