S00E00005765656B5F332E73726563F8
S113000045C0000053C0000051C000004FC00000B4
S11300104DC000004BC0000049C0000047C00000B4
S113002045C00000E5C0000041C000003FC0000022
S11300303DC000003BC0000039C0000037C00000D4
S113004035C0000033C0000031C000002FC00000E4
S11300502DC000002BC0000029C0000027C00000F4
S113006025C0000023C0000021C000001FC0000004
S11300701DC000001BC0000019C0000017C0000014
S113008015C0000013C0000011C0000011241FBEE1
S1130090CFEFD0E1DEBFCDBF21E0A0E0B1E001C0F1
S11300A01D92A330B207E1F7E5D044C1A9CF982F40
S11300B0907F95BBAB9AEFE4F3EC3197F1F700C076
S11300C0000094E095BBF0E18F9FC001112485BB33
S11300D0AB9A8FE493EC0197F1F700C0000015BAD6
S11300E008958FEF84BB8FE493EC0197F1F700C080
S11300F0000082E0DCDF8FE493EC0197F1F700C0AD
S1130100000088E2D4DF8FE493EC0197F1F700C09C
S113011000008CE0CCDF8FE493EC0197F1F700C092
S1130120000086E0C4DF8FE493EC0197F1F700C090
S1130130000080E8BCDF8FE493EC0197F1F700C086
S1130140000081E0B4DF8FE493EC0197F1F700C085
S113015000000895982F907F95BB95B39C6095BB44
S1130160EFE4F3EC3197F1F700C0000094E095BBA5
S1130170F0E18F9FC001112485BB85B38C6085BBE2
S11301808FE493EC0197F1F700C0000015BA0895CD
S1130190FF920F931F93CF93DF93EC0180E887DFE7
S11301A0FE0101900020E9F73197FE2EFC1A49F078
S11301B08E01C0E0F80181918F01CCDFCF5FFC128A
S11301C0F9CFDF91CF911F910F91FF9008951816E9
S11301D019066CF420E030E0EFECF7E03197F1F72A
S11301E000C000002F5F3F4F82179307A9F70895BF
S11301F01F920F920FB60F9211248F939F938091A9
S113020001019091020101969093020180930101F2
S11302108931910579F48091000181111AC081E03E
S11302208093000182B3805882BB10920201109225
S113023001010FC00F9769F480910001813049F4E6
S11302401092000182B3805882BB10920201109276
S113025001019F918F910F900FBE0F901F901895E1
S11302608AEF83BD87B7806887BF87E085BD8FEF3E
S113027084BB0895CF93DF93CDB7DEB729970FB62C
S1130280F894DEBF0FBECDBF2CDFEADF78941FEFFA
S11302908AE090E09CDF17BB84B588BB84B549E055
S11302A050E0BE016F5F7F4F90E007D0CE01019612
S11302B06FDF84E690E08BDFEBCF4532510518F415
S11302C0423008F004C0FB011082CB010895BB2723
S11302D04A3031F4992322F4BDE2909581959F4FE1
S11302E001C0BB27FB015527AA27880F991FAA1F06
S11302F0A41710F0A41B83955051B9F7A05DAA333D
S113030008F0A95DA193009779F7B111B193119207
S1130310CB0100C0DC01FC01672F71917723E1F769
S1130320329704C07C916D9370836291AE17BF07BE
S10B0330C8F30895F894FFCF0F
S9030000FC
