:1000000045C00000FAC0000011C1000054C000004B
:1000100052C0000050C000004EC000004CC00000A4
:100020004AC0000048C0000046C0000044C00000B4
:1000300042C0000040C000003EC000003CC00000C4
:100040003AC0000038C0000036C0000034C00000D4
:1000500032C0000030C000002EC000002CC00000E4
:100060002AC0000028C0000026C0000024C00000F4
:1000700022C0000020C000001EC000001CC0000004
:100080001AC0000018C0000016C0000011241FBED6
:10009000CFEFD0E1DEBFCDBF11E0A0E0B1E0E2E8FC
:1000A000F2E000E00BBF02C007900D92AE30B10746
:1000B000D9F7D5D0E4C0A4CF982F907F95BBAB9A49
:1000C000EFE4F3EC3197F1F700C0000094E095BB4A
:1000D000F0E18F9FC001112485BBAB9A8FE493ECB4
:1000E0000197F1F700C0000015BA08958FEF84BBA7
:1000F0008FE493EC0197F1F700C0000082E0DCDFB1
:100100008FE493EC0197F1F700C0000088E2D4DFA0
:100110008FE493EC0197F1F700C000008CE0CCDF96
:100120008FE493EC0197F1F700C0000086E0C4DF94
:100130008FE493EC0197F1F700C0000080E8BCDF8A
:100140008FE493EC0197F1F700C0000081E0B4DF89
:100150008FE493EC0197F1F700C000000895982F09
:10016000907F95BB95B39C6095BBEFE4F3EC319722
:10017000F1F700C0000094E095BBF0E18F9FC00153
:10018000112485BB85B38C6085BB8FE493EC01970C
:10019000F1F700C0000015BA0895FF920F931F9366
:1001A000CF93DF93EC0180E887DFFE010190002010
:1001B000E9F73197FE2EFC1A49F08E01C0E0F801F4
:1001C00081918F01CCDFCF5FFC12F9CFDF91CF910E
:1001D0001F910F91FF900895181619066CF420E0F6
:1001E00030E0EFECF7E03197F1F700C000002F5F4F
:1001F0003F4F82179307A9F708951F920F920FB6EA
:100200000F9211248F939F9314BA83B39FEF94BBE3
:10021000811103C081E085BB02C0880F85BB9F911F
:100220008F910F900FBE0F901F9018951F920F92F5
:100230000FB60F9211248F939F9314BA83B39FEF3D
:1002400094BB811103C081E085BB02C0880F85BBD0
:100250009F918F910F900FBE0F901F90189546DFC2
:100260008FE493EC0197F1F700C0000080E091E08B
:1002700094DF8FEF81BB8AE090E0AEDFFCCFF89493
:02028000FFCFAE
:0E028200686579202020202020202020000008
:00000001FF
